{
  "_format": "hh-sol-artifact-1",
  "contractName": "NFT",
  "sourceName": "contracts/NFT.sol",
  "abi": [
    {
      "inputs": [],
      "stateMutability": "nonpayable",
      "type": "constructor"
    },
    {
      "anonymous": false,
      "inputs": [
        {
          "indexed": true,
          "internalType": "address",
          "name": "owner",
          "type": "address"
        },
        {
          "indexed": true,
          "internalType": "address",
          "name": "approved",
          "type": "address"
        },
        {
          "indexed": true,
          "internalType": "uint256",
          "name": "tokenId",
          "type": "uint256"
        }
      ],
      "name": "Approval",
      "type": "event"
    },
    {
      "anonymous": false,
      "inputs": [
        {
          "indexed": true,
          "internalType": "address",
          "name": "owner",
          "type": "address"
        },
        {
          "indexed": true,
          "internalType": "address",
          "name": "operator",
          "type": "address"
        },
        {
          "indexed": false,
          "internalType": "bool",
          "name": "approved",
          "type": "bool"
        }
      ],
      "name": "ApprovalForAll",
      "type": "event"
    },
    {
      "anonymous": false,
      "inputs": [
        {
          "indexed": true,
          "internalType": "address",
          "name": "from",
          "type": "address"
        },
        {
          "indexed": true,
          "internalType": "address",
          "name": "to",
          "type": "address"
        },
        {
          "indexed": true,
          "internalType": "uint256",
          "name": "tokenId",
          "type": "uint256"
        }
      ],
      "name": "Transfer",
      "type": "event"
    },
    {
      "inputs": [],
      "name": "_tokenIds",
      "outputs": [
        {
          "internalType": "uint256",
          "name": "_value",
          "type": "uint256"
        }
      ],
      "stateMutability": "view",
      "type": "function"
    },
    {
      "inputs": [
        {
          "internalType": "address",
          "name": "to",
          "type": "address"
        },
        {
          "internalType": "uint256",
          "name": "tokenId",
          "type": "uint256"
        }
      ],
      "name": "approve",
      "outputs": [],
      "stateMutability": "nonpayable",
      "type": "function"
    },
    {
      "inputs": [
        {
          "internalType": "address",
          "name": "owner",
          "type": "address"
        }
      ],
      "name": "balanceOf",
      "outputs": [
        {
          "internalType": "uint256",
          "name": "",
          "type": "uint256"
        }
      ],
      "stateMutability": "view",
      "type": "function"
    },
    {
      "inputs": [
        {
          "internalType": "uint256",
          "name": "idx",
          "type": "uint256"
        }
      ],
      "name": "completeAirDrop",
      "outputs": [],
      "stateMutability": "nonpayable",
      "type": "function"
    },
    {
      "inputs": [],
      "name": "cost",
      "outputs": [
        {
          "internalType": "uint256",
          "name": "",
          "type": "uint256"
        }
      ],
      "stateMutability": "view",
      "type": "function"
    },
    {
      "inputs": [
        {
          "internalType": "uint256",
          "name": "tokenId",
          "type": "uint256"
        }
      ],
      "name": "getApproved",
      "outputs": [
        {
          "internalType": "address",
          "name": "",
          "type": "address"
        }
      ],
      "stateMutability": "view",
      "type": "function"
    },
    {
      "inputs": [],
      "name": "getMintCount",
      "outputs": [
        {
          "internalType": "uint256",
          "name": "",
          "type": "uint256"
        }
      ],
      "stateMutability": "view",
      "type": "function"
    },
    {
      "inputs": [],
      "name": "getRequested",
      "outputs": [
        {
          "internalType": "address[]",
          "name": "",
          "type": "address[]"
        }
      ],
      "stateMutability": "view",
      "type": "function"
    },
    {
      "inputs": [
        {
          "internalType": "address",
          "name": "",
          "type": "address"
        }
      ],
      "name": "index",
      "outputs": [
        {
          "internalType": "uint256",
          "name": "",
          "type": "uint256"
        }
      ],
      "stateMutability": "view",
      "type": "function"
    },
    {
      "inputs": [
        {
          "internalType": "address",
          "name": "owner",
          "type": "address"
        },
        {
          "internalType": "address",
          "name": "operator",
          "type": "address"
        }
      ],
      "name": "isApprovedForAll",
      "outputs": [
        {
          "internalType": "bool",
          "name": "",
          "type": "bool"
        }
      ],
      "stateMutability": "view",
      "type": "function"
    },
    {
      "inputs": [],
      "name": "mint",
      "outputs": [],
      "stateMutability": "payable",
      "type": "function"
    },
    {
      "inputs": [],
      "name": "name",
      "outputs": [
        {
          "internalType": "string",
          "name": "",
          "type": "string"
        }
      ],
      "stateMutability": "view",
      "type": "function"
    },
    {
      "inputs": [],
      "name": "owner",
      "outputs": [
        {
          "internalType": "address",
          "name": "",
          "type": "address"
        }
      ],
      "stateMutability": "view",
      "type": "function"
    },
    {
      "inputs": [
        {
          "internalType": "uint256",
          "name": "tokenId",
          "type": "uint256"
        }
      ],
      "name": "ownerOf",
      "outputs": [
        {
          "internalType": "address",
          "name": "",
          "type": "address"
        }
      ],
      "stateMutability": "view",
      "type": "function"
    },
    {
      "inputs": [],
      "name": "requestAirDrop",
      "outputs": [],
      "stateMutability": "nonpayable",
      "type": "function"
    },
    {
      "inputs": [
        {
          "internalType": "uint256",
          "name": "",
          "type": "uint256"
        }
      ],
      "name": "requested",
      "outputs": [
        {
          "internalType": "address",
          "name": "",
          "type": "address"
        }
      ],
      "stateMutability": "view",
      "type": "function"
    },
    {
      "inputs": [
        {
          "internalType": "address",
          "name": "from",
          "type": "address"
        },
        {
          "internalType": "address",
          "name": "to",
          "type": "address"
        },
        {
          "internalType": "uint256",
          "name": "tokenId",
          "type": "uint256"
        }
      ],
      "name": "safeTransferFrom",
      "outputs": [],
      "stateMutability": "nonpayable",
      "type": "function"
    },
    {
      "inputs": [
        {
          "internalType": "address",
          "name": "from",
          "type": "address"
        },
        {
          "internalType": "address",
          "name": "to",
          "type": "address"
        },
        {
          "internalType": "uint256",
          "name": "tokenId",
          "type": "uint256"
        },
        {
          "internalType": "bytes",
          "name": "_data",
          "type": "bytes"
        }
      ],
      "name": "safeTransferFrom",
      "outputs": [],
      "stateMutability": "nonpayable",
      "type": "function"
    },
    {
      "inputs": [
        {
          "internalType": "address",
          "name": "operator",
          "type": "address"
        },
        {
          "internalType": "bool",
          "name": "approved",
          "type": "bool"
        }
      ],
      "name": "setApprovalForAll",
      "outputs": [],
      "stateMutability": "nonpayable",
      "type": "function"
    },
    {
      "inputs": [
        {
          "internalType": "bytes4",
          "name": "interfaceId",
          "type": "bytes4"
        }
      ],
      "name": "supportsInterface",
      "outputs": [
        {
          "internalType": "bool",
          "name": "",
          "type": "bool"
        }
      ],
      "stateMutability": "view",
      "type": "function"
    },
    {
      "inputs": [],
      "name": "symbol",
      "outputs": [
        {
          "internalType": "string",
          "name": "",
          "type": "string"
        }
      ],
      "stateMutability": "view",
      "type": "function"
    },
    {
      "inputs": [
        {
          "internalType": "uint256",
          "name": "tokenId",
          "type": "uint256"
        }
      ],
      "name": "tokenURI",
      "outputs": [
        {
          "internalType": "string",
          "name": "",
          "type": "string"
        }
      ],
      "stateMutability": "view",
      "type": "function"
    },
    {
      "inputs": [
        {
          "internalType": "address",
          "name": "from",
          "type": "address"
        },
        {
          "internalType": "address",
          "name": "to",
          "type": "address"
        },
        {
          "internalType": "uint256",
          "name": "tokenId",
          "type": "uint256"
        }
      ],
      "name": "transferFrom",
      "outputs": [],
      "stateMutability": "nonpayable",
      "type": "function"
    }
  ],
  "bytecode": "0x60806040526611c37937e080006007553480156200001c57600080fd5b506040518060400160405280601081526020017f4e6f746966792047726f7570204e4654000000000000000000000000000000008152506040518060400160405280600681526020017f4e4f5449465900000000000000000000000000000000000000000000000000008152508160009080519060200190620000a19291906200021b565b508060019080519060200190620000ba9291906200021b565b50505033600b60006101000a81548173ffffffffffffffffffffffffffffffffffffffff021916908373ffffffffffffffffffffffffffffffffffffffff160217905550620001496040518060400160405280601381526020017f4372656174696e67204e4f54494659204e4654000000000000000000000000008152506200014f60201b620014791760201c565b620003f8565b620001ef816040516024016200016691906200030c565b6040516020818303038152906040527f41304fac000000000000000000000000000000000000000000000000000000007bffffffffffffffffffffffffffffffffffffffffffffffffffffffff19166020820180517bffffffffffffffffffffffffffffffffffffffffffffffffffffffff8381831617835250505050620001f260201b60201c565b50565b60008151905060006a636f6e736f6c652e6c6f679050602083016000808483855afa5050505050565b828054620002299062000382565b90600052602060002090601f0160209004810192826200024d576000855562000299565b82601f106200026857805160ff191683800117855562000299565b8280016001018555821562000299579182015b82811115620002985782518255916020019190600101906200027b565b5b509050620002a89190620002ac565b5090565b5b80821115620002c7576000816000905550600101620002ad565b5090565b6000620002d88262000330565b620002e481856200033b565b9350620002f68185602086016200034c565b6200030181620003e7565b840191505092915050565b60006020820190508181036000830152620003288184620002cb565b905092915050565b600081519050919050565b600082825260208201905092915050565b60005b838110156200036c5780820151818401526020810190506200034f565b838111156200037c576000848401525b50505050565b600060028204905060018216806200039b57607f821691505b60208210811415620003b257620003b1620003b8565b5b50919050565b7f4e487b7100000000000000000000000000000000000000000000000000000000600052602260045260246000fd5b6000601f19601f8301169050919050565b61388c80620004086000396000f3fe6080604052600436106101405760003560e01c80638023104e116100b6578063aa46a4001161006f578063aa46a4001461043d578063b88d4fde14610468578063c87b56dd14610491578063cfe524ab146104ce578063e65a57f1146104f7578063e985e9c51461053457610140565b80638023104e146103515780638da5cb5b1461037c5780638fc3b549146103a75780638fc92911146103d257806395d89b41146103e9578063a22cb4651461041457610140565b806313faede61161010857806313faede61461021d57806318def8ef1461024857806323b872dd1461028557806342842e0e146102ae5780636352211e146102d757806370a082311461031457610140565b806301ffc9a71461014557806306fdde0314610182578063081812fc146101ad578063095ea7b3146101ea5780631249c58b14610213575b600080fd5b34801561015157600080fd5b5061016c60048036038101906101679190612615565b610571565b6040516101799190612b4e565b60405180910390f35b34801561018e57600080fd5b50610197610653565b6040516101a49190612b69565b60405180910390f35b3480156101b957600080fd5b506101d460048036038101906101cf9190612667565b6106e5565b6040516101e19190612ac5565b60405180910390f35b3480156101f657600080fd5b50610211600480360381019061020c91906125d9565b61076a565b005b61021b610882565b005b34801561022957600080fd5b506102326109b4565b60405161023f9190612e0b565b60405180910390f35b34801561025457600080fd5b5061026f600480360381019061026a919061246e565b6109ba565b60405161027c9190612e0b565b60405180910390f35b34801561029157600080fd5b506102ac60048036038101906102a791906124d3565b6109d2565b005b3480156102ba57600080fd5b506102d560048036038101906102d091906124d3565b610a32565b005b3480156102e357600080fd5b506102fe60048036038101906102f99190612667565b610a52565b60405161030b9190612ac5565b60405180910390f35b34801561032057600080fd5b5061033b6004803603810190610336919061246e565b610b04565b6040516103489190612e0b565b60405180910390f35b34801561035d57600080fd5b50610366610bbc565b6040516103739190612b2c565b60405180910390f35b34801561038857600080fd5b50610391610ca4565b60405161039e9190612ac5565b60405180910390f35b3480156103b357600080fd5b506103bc610cca565b6040516103c99190612e0b565b60405180910390f35b3480156103de57600080fd5b506103e7610cdb565b005b3480156103f557600080fd5b506103fe610e3e565b60405161040b9190612b69565b60405180910390f35b34801561042057600080fd5b5061043b6004803603810190610436919061259d565b610ed0565b005b34801561044957600080fd5b50610452610ee6565b60405161045f9190612e0b565b60405180910390f35b34801561047457600080fd5b5061048f600480360381019061048a9190612522565b610ef2565b005b34801561049d57600080fd5b506104b860048036038101906104b39190612667565b610f54565b6040516104c59190612b69565b60405180910390f35b3480156104da57600080fd5b506104f560048036038101906104f09190612667565b6110a6565b005b34801561050357600080fd5b5061051e60048036038101906105199190612667565b6113a6565b60405161052b9190612ac5565b60405180910390f35b34801561054057600080fd5b5061055b60048036038101906105569190612497565b6113e5565b6040516105689190612b4e565b60405180910390f35b60007f80ac58cd000000000000000000000000000000000000000000000000000000007bffffffffffffffffffffffffffffffffffffffffffffffffffffffff1916827bffffffffffffffffffffffffffffffffffffffffffffffffffffffff1916148061063c57507f5b5e139f000000000000000000000000000000000000000000000000000000007bffffffffffffffffffffffffffffffffffffffffffffffffffffffff1916827bffffffffffffffffffffffffffffffffffffffffffffffffffffffff1916145b8061064c575061064b82611512565b5b9050919050565b60606000805461066290613069565b80601f016020809104026020016040519081016040528092919081815260200182805461068e90613069565b80156106db5780601f106106b0576101008083540402835291602001916106db565b820191906000526020600020905b8154815290600101906020018083116106be57829003601f168201915b5050505050905090565b60006106f08261157c565b61072f576040517f08c379a000000000000000000000000000000000000000000000000000000000815260040161072690612d2b565b60405180910390fd5b6004600083815260200190815260200160002060009054906101000a900473ffffffffffffffffffffffffffffffffffffffff169050919050565b600061077582610a52565b90508073ffffffffffffffffffffffffffffffffffffffff168373ffffffffffffffffffffffffffffffffffffffff1614156107e6576040517f08c379a00000000000000000000000000000000000000000000000000000000081526004016107dd90612d8b565b60405180910390fd5b8073ffffffffffffffffffffffffffffffffffffffff166108056115e8565b73ffffffffffffffffffffffffffffffffffffffff16148061083457506108338161082e6115e8565b6113e5565b5b610873576040517f08c379a000000000000000000000000000000000000000000000000000000000815260040161086a90612c4b565b60405180910390fd5b61087d83836115f0565b505050565b61138961088f600c6116a9565b106108cf576040517f08c379a00000000000000000000000000000000000000000000000000000000081526004016108c690612ceb565b60405180910390fd5b600754341015610914576040517f08c379a000000000000000000000000000000000000000000000000000000000815260040161090b90612dcb565b60405180910390fd5b6000610920600c6116a9565b90506000600960003373ffffffffffffffffffffffffffffffffffffffff1673ffffffffffffffffffffffffffffffffffffffff16815260200190815260200160002060006101000a81548160ff02191690831515021790555061098433826116b7565b6109a78160405180610100016040528060c5815260200161379260c591396116d5565b6109b1600c611749565b50565b60075481565b60086020528060005260406000206000915090505481565b6109e36109dd6115e8565b8261175f565b610a22576040517f08c379a0000000000000000000000000000000000000000000000000000000008152600401610a1990612dab565b60405180910390fd5b610a2d83838361183d565b505050565b610a4d83838360405180602001604052806000815250610ef2565b505050565b6000806002600084815260200190815260200160002060009054906101000a900473ffffffffffffffffffffffffffffffffffffffff169050600073ffffffffffffffffffffffffffffffffffffffff168173ffffffffffffffffffffffffffffffffffffffff161415610afb576040517f08c379a0000000000000000000000000000000000000000000000000000000008152600401610af290612c8b565b60405180910390fd5b80915050919050565b60008073ffffffffffffffffffffffffffffffffffffffff168273ffffffffffffffffffffffffffffffffffffffff161415610b75576040517f08c379a0000000000000000000000000000000000000000000000000000000008152600401610b6c90612c6b565b60405180910390fd5b600360008373ffffffffffffffffffffffffffffffffffffffff1673ffffffffffffffffffffffffffffffffffffffff168152602001908152602001600020549050919050565b6060600b60009054906101000a900473ffffffffffffffffffffffffffffffffffffffff1673ffffffffffffffffffffffffffffffffffffffff163373ffffffffffffffffffffffffffffffffffffffff1614610c1857600080fd5b600a805480602002602001604051908101604052809291908181526020018280548015610c9a57602002820191906000526020600020905b8160009054906101000a900473ffffffffffffffffffffffffffffffffffffffff1673ffffffffffffffffffffffffffffffffffffffff1681526020019060010190808311610c50575b5050505050905090565b600b60009054906101000a900473ffffffffffffffffffffffffffffffffffffffff1681565b6000610cd6600c6116a9565b905090565b60001515600960003373ffffffffffffffffffffffffffffffffffffffff1673ffffffffffffffffffffffffffffffffffffffff16815260200190815260200160002060009054906101000a900460ff16151514610d3857600080fd5b600a80549050600860003373ffffffffffffffffffffffffffffffffffffffff1673ffffffffffffffffffffffffffffffffffffffff168152602001908152602001600020819055506001600960003373ffffffffffffffffffffffffffffffffffffffff1673ffffffffffffffffffffffffffffffffffffffff16815260200190815260200160002060006101000a81548160ff021916908315150217905550600a339080600181540180825580915050600190039060005260206000200160009091909190916101000a81548173ffffffffffffffffffffffffffffffffffffffff021916908373ffffffffffffffffffffffffffffffffffffffff160217905550565b606060018054610e4d90613069565b80601f0160208091040260200160405190810160405280929190818152602001828054610e7990613069565b8015610ec65780601f10610e9b57610100808354040283529160200191610ec6565b820191906000526020600020905b815481529060010190602001808311610ea957829003601f168201915b5050505050905090565b610ee2610edb6115e8565b8383611aa4565b5050565b600c8060000154905081565b610f03610efd6115e8565b8361175f565b610f42576040517f08c379a0000000000000000000000000000000000000000000000000000000008152600401610f3990612dab565b60405180910390fd5b610f4e84848484611c11565b50505050565b6060610f5f8261157c565b610f9e576040517f08c379a0000000000000000000000000000000000000000000000000000000008152600401610f9590612d0b565b60405180910390fd5b6000600660008481526020019081526020016000208054610fbe90613069565b80601f0160208091040260200160405190810160405280929190818152602001828054610fea90613069565b80156110375780601f1061100c57610100808354040283529160200191611037565b820191906000526020600020905b81548152906001019060200180831161101a57829003601f168201915b505050505090506000611048611c6d565b905060008151141561105e5781925050506110a1565b60008251111561109357808260405160200161107b929190612aa1565b604051602081830303815290604052925050506110a1565b61109c84611c84565b925050505b919050565b600b60009054906101000a900473ffffffffffffffffffffffffffffffffffffffff1673ffffffffffffffffffffffffffffffffffffffff163373ffffffffffffffffffffffffffffffffffffffff1614611136576040517f08c379a000000000000000000000000000000000000000000000000000000000815260040161112d90612deb565b60405180910390fd5b6001151560096000600a8481548110611178577f4e487b7100000000000000000000000000000000000000000000000000000000600052603260045260246000fd5b9060005260206000200160009054906101000a900473ffffffffffffffffffffffffffffffffffffffff1673ffffffffffffffffffffffffffffffffffffffff1673ffffffffffffffffffffffffffffffffffffffff16815260200190815260200160002060009054906101000a900460ff161515146111f757600080fd5b600a80549050811061123e576040517f08c379a000000000000000000000000000000000000000000000000000000000815260040161123590612d6b565b60405180910390fd5b600a6001600a805490506112529190612f7f565b81548110611289577f4e487b7100000000000000000000000000000000000000000000000000000000600052603260045260246000fd5b9060005260206000200160009054906101000a900473ffffffffffffffffffffffffffffffffffffffff16600a82815481106112ee577f4e487b7100000000000000000000000000000000000000000000000000000000600052603260045260246000fd5b9060005260206000200160006101000a81548173ffffffffffffffffffffffffffffffffffffffff021916908373ffffffffffffffffffffffffffffffffffffffff160217905550600a80548061136e577f4e487b7100000000000000000000000000000000000000000000000000000000600052603160045260246000fd5b6001900381819060005260206000200160006101000a81549073ffffffffffffffffffffffffffffffffffffffff0219169055905550565b600a81815481106113b657600080fd5b906000526020600020016000915054906101000a900473ffffffffffffffffffffffffffffffffffffffff1681565b6000600560008473ffffffffffffffffffffffffffffffffffffffff1673ffffffffffffffffffffffffffffffffffffffff16815260200190815260200160002060008373ffffffffffffffffffffffffffffffffffffffff1673ffffffffffffffffffffffffffffffffffffffff16815260200190815260200160002060009054906101000a900460ff16905092915050565b61150f8160405160240161148d9190612b69565b6040516020818303038152906040527f41304fac000000000000000000000000000000000000000000000000000000007bffffffffffffffffffffffffffffffffffffffffffffffffffffffff19166020820180517bffffffffffffffffffffffffffffffffffffffffffffffffffffffff8381831617835250505050611d2b565b50565b60007f01ffc9a7000000000000000000000000000000000000000000000000000000007bffffffffffffffffffffffffffffffffffffffffffffffffffffffff1916827bffffffffffffffffffffffffffffffffffffffffffffffffffffffff1916149050919050565b60008073ffffffffffffffffffffffffffffffffffffffff166002600084815260200190815260200160002060009054906101000a900473ffffffffffffffffffffffffffffffffffffffff1673ffffffffffffffffffffffffffffffffffffffff1614159050919050565b600033905090565b816004600083815260200190815260200160002060006101000a81548173ffffffffffffffffffffffffffffffffffffffff021916908373ffffffffffffffffffffffffffffffffffffffff160217905550808273ffffffffffffffffffffffffffffffffffffffff1661166383610a52565b73ffffffffffffffffffffffffffffffffffffffff167f8c5be1e5ebec7d5bd14f71427d1e84f3dd0314c0f7b2291e5b200ac8c7c3b92560405160405180910390a45050565b600081600001549050919050565b6116d1828260405180602001604052806000815250611d54565b5050565b6116de8261157c565b61171d576040517f08c379a000000000000000000000000000000000000000000000000000000000815260040161171490612cab565b60405180910390fd5b806006600084815260200190815260200160002090805190602001906117449291906122fa565b505050565b6001816000016000828254019250508190555050565b600061176a8261157c565b6117a9576040517f08c379a00000000000000000000000000000000000000000000000000000000081526004016117a090612c2b565b60405180910390fd5b60006117b483610a52565b90508073ffffffffffffffffffffffffffffffffffffffff168473ffffffffffffffffffffffffffffffffffffffff16148061182357508373ffffffffffffffffffffffffffffffffffffffff1661180b846106e5565b73ffffffffffffffffffffffffffffffffffffffff16145b80611834575061183381856113e5565b5b91505092915050565b8273ffffffffffffffffffffffffffffffffffffffff1661185d82610a52565b73ffffffffffffffffffffffffffffffffffffffff16146118b3576040517f08c379a00000000000000000000000000000000000000000000000000000000081526004016118aa90612bab565b60405180910390fd5b600073ffffffffffffffffffffffffffffffffffffffff168273ffffffffffffffffffffffffffffffffffffffff161415611923576040517f08c379a000000000000000000000000000000000000000000000000000000000815260040161191a90612beb565b60405180910390fd5b61192e838383611daf565b6119396000826115f0565b6001600360008573ffffffffffffffffffffffffffffffffffffffff1673ffffffffffffffffffffffffffffffffffffffff16815260200190815260200160002060008282546119899190612f7f565b925050819055506001600360008473ffffffffffffffffffffffffffffffffffffffff1673ffffffffffffffffffffffffffffffffffffffff16815260200190815260200160002060008282546119e09190612ef8565b92505081905550816002600083815260200190815260200160002060006101000a81548173ffffffffffffffffffffffffffffffffffffffff021916908373ffffffffffffffffffffffffffffffffffffffff160217905550808273ffffffffffffffffffffffffffffffffffffffff168473ffffffffffffffffffffffffffffffffffffffff167fddf252ad1be2c89b69c2b068fc378daa952ba7f163c4a11628f55a4df523b3ef60405160405180910390a4611a9f838383611db4565b505050565b8173ffffffffffffffffffffffffffffffffffffffff168373ffffffffffffffffffffffffffffffffffffffff161415611b13576040517f08c379a0000000000000000000000000000000000000000000000000000000008152600401611b0a90612c0b565b60405180910390fd5b80600560008573ffffffffffffffffffffffffffffffffffffffff1673ffffffffffffffffffffffffffffffffffffffff16815260200190815260200160002060008473ffffffffffffffffffffffffffffffffffffffff1673ffffffffffffffffffffffffffffffffffffffff16815260200190815260200160002060006101000a81548160ff0219169083151502179055508173ffffffffffffffffffffffffffffffffffffffff168373ffffffffffffffffffffffffffffffffffffffff167f17307eab39ab6107e8899845ad3d59bd9653f200f220920489ca2b5937696c3183604051611c049190612b4e565b60405180910390a3505050565b611c1c84848461183d565b611c2884848484611db9565b611c67576040517f08c379a0000000000000000000000000000000000000000000000000000000008152600401611c5e90612b8b565b60405180910390fd5b50505050565b606060405180602001604052806000815250905090565b6060611c8f8261157c565b611cce576040517f08c379a0000000000000000000000000000000000000000000000000000000008152600401611cc590612d4b565b60405180910390fd5b6000611cd8611c6d565b90506000815111611cf85760405180602001604052806000815250611d23565b80611d0284611f50565b604051602001611d13929190612aa1565b6040516020818303038152906040525b915050919050565b60008151905060006a636f6e736f6c652e6c6f679050602083016000808483855afa5050505050565b611d5e83836120fd565b611d6b6000848484611db9565b611daa576040517f08c379a0000000000000000000000000000000000000000000000000000000008152600401611da190612b8b565b60405180910390fd5b505050565b505050565b505050565b6000611dda8473ffffffffffffffffffffffffffffffffffffffff166122d7565b15611f43578373ffffffffffffffffffffffffffffffffffffffff1663150b7a02611e036115e8565b8786866040518563ffffffff1660e01b8152600401611e259493929190612ae0565b602060405180830381600087803b158015611e3f57600080fd5b505af1925050508015611e7057506040513d601f19601f82011682018060405250810190611e6d919061263e565b60015b611ef3573d8060008114611ea0576040519150601f19603f3d011682016040523d82523d6000602084013e611ea5565b606091505b50600081511415611eeb576040517f08c379a0000000000000000000000000000000000000000000000000000000008152600401611ee290612b8b565b60405180910390fd5b805181602001fd5b63150b7a0260e01b7bffffffffffffffffffffffffffffffffffffffffffffffffffffffff1916817bffffffffffffffffffffffffffffffffffffffffffffffffffffffff191614915050611f48565b600190505b949350505050565b60606000821415611f98576040518060400160405280600181526020017f300000000000000000000000000000000000000000000000000000000000000081525090506120f8565b600082905060005b60008214611fca578080611fb3906130cc565b915050600a82611fc39190612f4e565b9150611fa0565b60008167ffffffffffffffff81111561200c577f4e487b7100000000000000000000000000000000000000000000000000000000600052604160045260246000fd5b6040519080825280601f01601f19166020018201604052801561203e5781602001600182028036833780820191505090505b5090505b600085146120f1576001826120579190612f7f565b9150600a856120669190613115565b60306120729190612ef8565b60f81b8183815181106120ae577f4e487b7100000000000000000000000000000000000000000000000000000000600052603260045260246000fd5b60200101907effffffffffffffffffffffffffffffffffffffffffffffffffffffffffffff1916908160001a905350600a856120ea9190612f4e565b9450612042565b8093505050505b919050565b600073ffffffffffffffffffffffffffffffffffffffff168273ffffffffffffffffffffffffffffffffffffffff16141561216d576040517f08c379a000000000000000000000000000000000000000000000000000000000815260040161216490612ccb565b60405180910390fd5b6121768161157c565b156121b6576040517f08c379a00000000000000000000000000000000000000000000000000000000081526004016121ad90612bcb565b60405180910390fd5b6121c260008383611daf565b6001600360008473ffffffffffffffffffffffffffffffffffffffff1673ffffffffffffffffffffffffffffffffffffffff16815260200190815260200160002060008282546122129190612ef8565b92505081905550816002600083815260200190815260200160002060006101000a81548173ffffffffffffffffffffffffffffffffffffffff021916908373ffffffffffffffffffffffffffffffffffffffff160217905550808273ffffffffffffffffffffffffffffffffffffffff16600073ffffffffffffffffffffffffffffffffffffffff167fddf252ad1be2c89b69c2b068fc378daa952ba7f163c4a11628f55a4df523b3ef60405160405180910390a46122d360008383611db4565b5050565b6000808273ffffffffffffffffffffffffffffffffffffffff163b119050919050565b82805461230690613069565b90600052602060002090601f016020900481019282612328576000855561236f565b82601f1061234157805160ff191683800117855561236f565b8280016001018555821561236f579182015b8281111561236e578251825591602001919060010190612353565b5b50905061237c9190612380565b5090565b5b80821115612399576000816000905550600101612381565b5090565b60006123b06123ab84612e4b565b612e26565b9050828152602081018484840111156123c857600080fd5b6123d3848285613027565b509392505050565b6000813590506123ea81613735565b92915050565b6000813590506123ff8161374c565b92915050565b60008135905061241481613763565b92915050565b60008151905061242981613763565b92915050565b600082601f83011261244057600080fd5b813561245084826020860161239d565b91505092915050565b6000813590506124688161377a565b92915050565b60006020828403121561248057600080fd5b600061248e848285016123db565b91505092915050565b600080604083850312156124aa57600080fd5b60006124b8858286016123db565b92505060206124c9858286016123db565b9150509250929050565b6000806000606084860312156124e857600080fd5b60006124f6868287016123db565b9350506020612507868287016123db565b925050604061251886828701612459565b9150509250925092565b6000806000806080858703121561253857600080fd5b6000612546878288016123db565b9450506020612557878288016123db565b935050604061256887828801612459565b925050606085013567ffffffffffffffff81111561258557600080fd5b6125918782880161242f565b91505092959194509250565b600080604083850312156125b057600080fd5b60006125be858286016123db565b92505060206125cf858286016123f0565b9150509250929050565b600080604083850312156125ec57600080fd5b60006125fa858286016123db565b925050602061260b85828601612459565b9150509250929050565b60006020828403121561262757600080fd5b600061263584828501612405565b91505092915050565b60006020828403121561265057600080fd5b600061265e8482850161241a565b91505092915050565b60006020828403121561267957600080fd5b600061268784828501612459565b91505092915050565b600061269c83836126a8565b60208301905092915050565b6126b181612fb3565b82525050565b6126c081612fb3565b82525050565b60006126d182612e8c565b6126db8185612eba565b93506126e683612e7c565b8060005b838110156127175781516126fe8882612690565b975061270983612ead565b9250506001810190506126ea565b5085935050505092915050565b61272d81612fc5565b82525050565b600061273e82612e97565b6127488185612ecb565b9350612758818560208601613036565b61276181613202565b840191505092915050565b600061277782612ea2565b6127818185612edc565b9350612791818560208601613036565b61279a81613202565b840191505092915050565b60006127b082612ea2565b6127ba8185612eed565b93506127ca818560208601613036565b80840191505092915050565b60006127e3603283612edc565b91506127ee82613213565b604082019050919050565b6000612806602583612edc565b915061281182613262565b604082019050919050565b6000612829601c83612edc565b9150612834826132b1565b602082019050919050565b600061284c602483612edc565b9150612857826132da565b604082019050919050565b600061286f601983612edc565b915061287a82613329565b602082019050919050565b6000612892602c83612edc565b915061289d82613352565b604082019050919050565b60006128b5603883612edc565b91506128c0826133a1565b604082019050919050565b60006128d8602a83612edc565b91506128e3826133f0565b604082019050919050565b60006128fb602983612edc565b91506129068261343f565b604082019050919050565b600061291e602e83612edc565b91506129298261348e565b604082019050919050565b6000612941602083612edc565b915061294c826134dd565b602082019050919050565b6000612964601083612edc565b915061296f82613506565b602082019050919050565b6000612987603183612edc565b91506129928261352f565b604082019050919050565b60006129aa602c83612edc565b91506129b58261357e565b604082019050919050565b60006129cd602f83612edc565b91506129d8826135cd565b604082019050919050565b60006129f0600f83612edc565b91506129fb8261361c565b602082019050919050565b6000612a13602183612edc565b9150612a1e82613645565b604082019050919050565b6000612a36603183612edc565b9150612a4182613694565b604082019050919050565b6000612a59600883612edc565b9150612a64826136e3565b602082019050919050565b6000612a7c600983612edc565b9150612a878261370c565b602082019050919050565b612a9b8161301d565b82525050565b6000612aad82856127a5565b9150612ab982846127a5565b91508190509392505050565b6000602082019050612ada60008301846126b7565b92915050565b6000608082019050612af560008301876126b7565b612b0260208301866126b7565b612b0f6040830185612a92565b8181036060830152612b218184612733565b905095945050505050565b60006020820190508181036000830152612b4681846126c6565b905092915050565b6000602082019050612b636000830184612724565b92915050565b60006020820190508181036000830152612b83818461276c565b905092915050565b60006020820190508181036000830152612ba4816127d6565b9050919050565b60006020820190508181036000830152612bc4816127f9565b9050919050565b60006020820190508181036000830152612be48161281c565b9050919050565b60006020820190508181036000830152612c048161283f565b9050919050565b60006020820190508181036000830152612c2481612862565b9050919050565b60006020820190508181036000830152612c4481612885565b9050919050565b60006020820190508181036000830152612c64816128a8565b9050919050565b60006020820190508181036000830152612c84816128cb565b9050919050565b60006020820190508181036000830152612ca4816128ee565b9050919050565b60006020820190508181036000830152612cc481612911565b9050919050565b60006020820190508181036000830152612ce481612934565b9050919050565b60006020820190508181036000830152612d0481612957565b9050919050565b60006020820190508181036000830152612d248161297a565b9050919050565b60006020820190508181036000830152612d448161299d565b9050919050565b60006020820190508181036000830152612d64816129c0565b9050919050565b60006020820190508181036000830152612d84816129e3565b9050919050565b60006020820190508181036000830152612da481612a06565b9050919050565b60006020820190508181036000830152612dc481612a29565b9050919050565b60006020820190508181036000830152612de481612a4c565b9050919050565b60006020820190508181036000830152612e0481612a6f565b9050919050565b6000602082019050612e206000830184612a92565b92915050565b6000612e30612e41565b9050612e3c828261309b565b919050565b6000604051905090565b600067ffffffffffffffff821115612e6657612e656131d3565b5b612e6f82613202565b9050602081019050919050565b6000819050602082019050919050565b600081519050919050565b600081519050919050565b600081519050919050565b6000602082019050919050565b600082825260208201905092915050565b600082825260208201905092915050565b600082825260208201905092915050565b600081905092915050565b6000612f038261301d565b9150612f0e8361301d565b9250827fffffffffffffffffffffffffffffffffffffffffffffffffffffffffffffffff03821115612f4357612f42613146565b5b828201905092915050565b6000612f598261301d565b9150612f648361301d565b925082612f7457612f73613175565b5b828204905092915050565b6000612f8a8261301d565b9150612f958361301d565b925082821015612fa857612fa7613146565b5b828203905092915050565b6000612fbe82612ffd565b9050919050565b60008115159050919050565b60007fffffffff0000000000000000000000000000000000000000000000000000000082169050919050565b600073ffffffffffffffffffffffffffffffffffffffff82169050919050565b6000819050919050565b82818337600083830152505050565b60005b83811015613054578082015181840152602081019050613039565b83811115613063576000848401525b50505050565b6000600282049050600182168061308157607f821691505b60208210811415613095576130946131a4565b5b50919050565b6130a482613202565b810181811067ffffffffffffffff821117156130c3576130c26131d3565b5b80604052505050565b60006130d78261301d565b91507fffffffffffffffffffffffffffffffffffffffffffffffffffffffffffffffff82141561310a57613109613146565b5b600182019050919050565b60006131208261301d565b915061312b8361301d565b92508261313b5761313a613175565b5b828206905092915050565b7f4e487b7100000000000000000000000000000000000000000000000000000000600052601160045260246000fd5b7f4e487b7100000000000000000000000000000000000000000000000000000000600052601260045260246000fd5b7f4e487b7100000000000000000000000000000000000000000000000000000000600052602260045260246000fd5b7f4e487b7100000000000000000000000000000000000000000000000000000000600052604160045260246000fd5b6000601f19601f8301169050919050565b7f4552433732313a207472616e7366657220746f206e6f6e20455243373231526560008201527f63656976657220696d706c656d656e7465720000000000000000000000000000602082015250565b7f4552433732313a207472616e736665722066726f6d20696e636f72726563742060008201527f6f776e6572000000000000000000000000000000000000000000000000000000602082015250565b7f4552433732313a20746f6b656e20616c7265616479206d696e74656400000000600082015250565b7f4552433732313a207472616e7366657220746f20746865207a65726f2061646460008201527f7265737300000000000000000000000000000000000000000000000000000000602082015250565b7f4552433732313a20617070726f766520746f2063616c6c657200000000000000600082015250565b7f4552433732313a206f70657261746f7220717565727920666f72206e6f6e657860008201527f697374656e7420746f6b656e0000000000000000000000000000000000000000602082015250565b7f4552433732313a20617070726f76652063616c6c6572206973206e6f74206f7760008201527f6e6572206e6f7220617070726f76656420666f7220616c6c0000000000000000602082015250565b7f4552433732313a2062616c616e636520717565727920666f7220746865207a6560008201527f726f206164647265737300000000000000000000000000000000000000000000602082015250565b7f4552433732313a206f776e657220717565727920666f72206e6f6e657869737460008201527f656e7420746f6b656e0000000000000000000000000000000000000000000000602082015250565b7f45524337323155524953746f726167653a2055524920736574206f66206e6f6e60008201527f6578697374656e7420746f6b656e000000000000000000000000000000000000602082015250565b7f4552433732313a206d696e7420746f20746865207a65726f2061646472657373600082015250565b7f4361706163697479207265616368656400000000000000000000000000000000600082015250565b7f45524337323155524953746f726167653a2055524920717565727920666f722060008201527f6e6f6e6578697374656e7420746f6b656e000000000000000000000000000000602082015250565b7f4552433732313a20617070726f76656420717565727920666f72206e6f6e657860008201527f697374656e7420746f6b656e0000000000000000000000000000000000000000602082015250565b7f4552433732314d657461646174613a2055524920717565727920666f72206e6f60008201527f6e6578697374656e7420746f6b656e0000000000000000000000000000000000602082015250565b7f696e76616c696420726571756573740000000000000000000000000000000000600082015250565b7f4552433732313a20617070726f76616c20746f2063757272656e74206f776e6560008201527f7200000000000000000000000000000000000000000000000000000000000000602082015250565b7f4552433732313a207472616e736665722063616c6c6572206973206e6f74206f60008201527f776e6572206e6f7220617070726f766564000000000000000000000000000000602082015250565b7f6e6f206d6f6e6579000000000000000000000000000000000000000000000000600082015250565b7f4e4f54204f574e45520000000000000000000000000000000000000000000000600082015250565b61373e81612fb3565b811461374957600080fd5b50565b61375581612fc5565b811461376057600080fd5b50565b61376c81612fd1565b811461377757600080fd5b50565b6137838161301d565b811461378e57600080fd5b5056fe646174613a6170706c69636174696f6e2f6a736f6e3b6261736536342c65794a755957316c496a6f69546b395553555a5a49456453543156514945354756434973496d526c63324e796158423061573975496a6f694d5342355a5746794947316c62574a6c636e4e6f6158416764473867546d393061575a3549454e766232736752334a76645841694c434a706257466e5a534936496d68306448427a4f69387661533570625764316369356a623230765632517962456c7763693577626d636966513d3da264697066735822122000b58a1239cb2a328998132756087d58e1628754a9d3c2b4a5145c0a6da5c38a64736f6c63430008040033",
  "linkReferences": {},
  "deployedLinkReferences": {}
}