{
  "_format": "hh-sol-artifact-1",
  "contractName": "NGToken",
  "sourceName": "contracts/NGT.sol",
  "abi": [
    {
      "inputs": [],
      "stateMutability": "nonpayable",
      "type": "constructor"
    },
    {
      "anonymous": false,
      "inputs": [
        {
          "indexed": true,
          "internalType": "address",
          "name": "owner",
          "type": "address"
        },
        {
          "indexed": true,
          "internalType": "address",
          "name": "spender",
          "type": "address"
        },
        {
          "indexed": false,
          "internalType": "uint256",
          "name": "value",
          "type": "uint256"
        }
      ],
      "name": "Approval",
      "type": "event"
    },
    {
      "anonymous": false,
      "inputs": [
        {
          "indexed": true,
          "internalType": "address",
          "name": "from",
          "type": "address"
        },
        {
          "indexed": true,
          "internalType": "address",
          "name": "to",
          "type": "address"
        },
        {
          "indexed": false,
          "internalType": "uint256",
          "name": "value",
          "type": "uint256"
        }
      ],
      "name": "Transfer",
      "type": "event"
    },
    {
      "inputs": [
        {
          "internalType": "address",
          "name": "owner",
          "type": "address"
        },
        {
          "internalType": "address",
          "name": "spender",
          "type": "address"
        }
      ],
      "name": "allowance",
      "outputs": [
        {
          "internalType": "uint256",
          "name": "",
          "type": "uint256"
        }
      ],
      "stateMutability": "view",
      "type": "function"
    },
    {
      "inputs": [
        {
          "internalType": "address",
          "name": "spender",
          "type": "address"
        },
        {
          "internalType": "uint256",
          "name": "amount",
          "type": "uint256"
        }
      ],
      "name": "approve",
      "outputs": [
        {
          "internalType": "bool",
          "name": "",
          "type": "bool"
        }
      ],
      "stateMutability": "nonpayable",
      "type": "function"
    },
    {
      "inputs": [
        {
          "internalType": "address",
          "name": "account",
          "type": "address"
        }
      ],
      "name": "balanceOf",
      "outputs": [
        {
          "internalType": "uint256",
          "name": "",
          "type": "uint256"
        }
      ],
      "stateMutability": "view",
      "type": "function"
    },
    {
      "inputs": [
        {
          "internalType": "address",
          "name": "to",
          "type": "address"
        }
      ],
      "name": "claimAirdrop",
      "outputs": [
        {
          "internalType": "bool",
          "name": "",
          "type": "bool"
        }
      ],
      "stateMutability": "nonpayable",
      "type": "function"
    },
    {
      "inputs": [
        {
          "internalType": "address",
          "name": "",
          "type": "address"
        }
      ],
      "name": "claimed",
      "outputs": [
        {
          "internalType": "bool",
          "name": "",
          "type": "bool"
        }
      ],
      "stateMutability": "view",
      "type": "function"
    },
    {
      "inputs": [],
      "name": "decimals",
      "outputs": [
        {
          "internalType": "uint8",
          "name": "",
          "type": "uint8"
        }
      ],
      "stateMutability": "view",
      "type": "function"
    },
    {
      "inputs": [
        {
          "internalType": "address",
          "name": "spender",
          "type": "address"
        },
        {
          "internalType": "uint256",
          "name": "subtractedValue",
          "type": "uint256"
        }
      ],
      "name": "decreaseAllowance",
      "outputs": [
        {
          "internalType": "bool",
          "name": "",
          "type": "bool"
        }
      ],
      "stateMutability": "nonpayable",
      "type": "function"
    },
    {
      "inputs": [
        {
          "internalType": "address",
          "name": "spender",
          "type": "address"
        },
        {
          "internalType": "uint256",
          "name": "addedValue",
          "type": "uint256"
        }
      ],
      "name": "increaseAllowance",
      "outputs": [
        {
          "internalType": "bool",
          "name": "",
          "type": "bool"
        }
      ],
      "stateMutability": "nonpayable",
      "type": "function"
    },
    {
      "inputs": [],
      "name": "name",
      "outputs": [
        {
          "internalType": "string",
          "name": "",
          "type": "string"
        }
      ],
      "stateMutability": "view",
      "type": "function"
    },
    {
      "inputs": [],
      "name": "owner",
      "outputs": [
        {
          "internalType": "address",
          "name": "",
          "type": "address"
        }
      ],
      "stateMutability": "view",
      "type": "function"
    },
    {
      "inputs": [],
      "name": "symbol",
      "outputs": [
        {
          "internalType": "string",
          "name": "",
          "type": "string"
        }
      ],
      "stateMutability": "view",
      "type": "function"
    },
    {
      "inputs": [],
      "name": "totalSupply",
      "outputs": [
        {
          "internalType": "uint256",
          "name": "",
          "type": "uint256"
        }
      ],
      "stateMutability": "view",
      "type": "function"
    },
    {
      "inputs": [
        {
          "internalType": "address",
          "name": "to",
          "type": "address"
        },
        {
          "internalType": "uint256",
          "name": "amount",
          "type": "uint256"
        }
      ],
      "name": "transfer",
      "outputs": [
        {
          "internalType": "bool",
          "name": "",
          "type": "bool"
        }
      ],
      "stateMutability": "nonpayable",
      "type": "function"
    },
    {
      "inputs": [
        {
          "internalType": "address",
          "name": "from",
          "type": "address"
        },
        {
          "internalType": "address",
          "name": "to",
          "type": "address"
        },
        {
          "internalType": "uint256",
          "name": "amount",
          "type": "uint256"
        }
      ],
      "name": "transferFrom",
      "outputs": [
        {
          "internalType": "bool",
          "name": "",
          "type": "bool"
        }
      ],
      "stateMutability": "nonpayable",
      "type": "function"
    }
  ],
  "bytecode": "0x60806040523480156200001157600080fd5b506040518060400160405280600c81526020017f4e6f7469667920546f6b656e00000000000000000000000000000000000000008152506040518060400160405280600381526020017f4e47540000000000000000000000000000000000000000000000000000000000815250816003908051906020019062000096929190620003af565b508060049080519060200190620000af929190620003af565b505050620000fd6040518060400160405280600c81526020017f6372656174696e67204e475400000000000000000000000000000000000000008152506200016060201b6200088e1760201c565b33600560006101000a81548173ffffffffffffffffffffffffffffffffffffffff021916908373ffffffffffffffffffffffffffffffffffffffff1602179055506200015a3369d3c21bcecceda10000006200020360201b60201c565b620006c2565b6200020081604051602401620001779190620004d8565b6040516020818303038152906040527f41304fac000000000000000000000000000000000000000000000000000000007bffffffffffffffffffffffffffffffffffffffffffffffffffffffff19166020820180517bffffffffffffffffffffffffffffffffffffffffffffffffffffffff83818316178352505050506200037c60201b60201c565b50565b600073ffffffffffffffffffffffffffffffffffffffff168273ffffffffffffffffffffffffffffffffffffffff16141562000276576040517f08c379a00000000000000000000000000000000000000000000000000000000081526004016200026d90620004fc565b60405180910390fd5b6200028a60008383620003a560201b60201c565b80600260008282546200029e919062000557565b92505081905550806000808473ffffffffffffffffffffffffffffffffffffffff1673ffffffffffffffffffffffffffffffffffffffff1681526020019081526020016000206000828254620002f5919062000557565b925050819055508173ffffffffffffffffffffffffffffffffffffffff16600073ffffffffffffffffffffffffffffffffffffffff167fddf252ad1be2c89b69c2b068fc378daa952ba7f163c4a11628f55a4df523b3ef836040516200035c91906200051e565b60405180910390a36200037860008383620003aa60201b60201c565b5050565b60008151905060006a636f6e736f6c652e6c6f679050602083016000808483855afa5050505050565b505050565b505050565b828054620003bd90620005f4565b90600052602060002090601f016020900481019282620003e157600085556200042d565b82601f10620003fc57805160ff19168380011785556200042d565b828001600101855582156200042d579182015b828111156200042c5782518255916020019190600101906200040f565b5b5090506200043c919062000440565b5090565b5b808211156200045b57600081600090555060010162000441565b5090565b60006200046c826200053b565b62000478818562000546565b93506200048a818560208601620005be565b620004958162000688565b840191505092915050565b6000620004af601f8362000546565b9150620004bc8262000699565b602082019050919050565b620004d281620005b4565b82525050565b60006020820190508181036000830152620004f481846200045f565b905092915050565b600060208201905081810360008301526200051781620004a0565b9050919050565b6000602082019050620005356000830184620004c7565b92915050565b600081519050919050565b600082825260208201905092915050565b60006200056482620005b4565b91506200057183620005b4565b9250827fffffffffffffffffffffffffffffffffffffffffffffffffffffffffffffffff03821115620005a957620005a86200062a565b5b828201905092915050565b6000819050919050565b60005b83811015620005de578082015181840152602081019050620005c1565b83811115620005ee576000848401525b50505050565b600060028204905060018216806200060d57607f821691505b6020821081141562000624576200062362000659565b5b50919050565b7f4e487b7100000000000000000000000000000000000000000000000000000000600052601160045260246000fd5b7f4e487b7100000000000000000000000000000000000000000000000000000000600052602260045260246000fd5b6000601f19601f8301169050919050565b7f45524332303a206d696e7420746f20746865207a65726f206164647265737300600082015250565b61169a80620006d26000396000f3fe608060405234801561001057600080fd5b50600436106100ea5760003560e01c806370a082311161008c578063a457c2d711610066578063a457c2d714610275578063a9059cbb146102a5578063c884ef83146102d5578063dd62ed3e14610305576100ea565b806370a08231146102095780638da5cb5b1461023957806395d89b4114610257576100ea565b806323b872dd116100c857806323b872dd1461015b578063313ce5671461018b57806339509351146101a957806365f8c6c5146101d9576100ea565b806306fdde03146100ef578063095ea7b31461010d57806318160ddd1461013d575b600080fd5b6100f7610335565b6040516101049190611117565b60405180910390f35b61012760048036038101906101229190610f18565b6103c7565b60405161013491906110fc565b60405180910390f35b6101456103ea565b6040516101529190611239565b60405180910390f35b61017560048036038101906101709190610ec9565b6103f4565b60405161018291906110fc565b60405180910390f35b610193610423565b6040516101a09190611254565b60405180910390f35b6101c360048036038101906101be9190610f18565b61042c565b6040516101d091906110fc565b60405180910390f35b6101f360048036038101906101ee9190610e64565b6104d6565b60405161020091906110fc565b60405180910390f35b610223600480360381019061021e9190610e64565b6105da565b6040516102309190611239565b60405180910390f35b610241610622565b60405161024e91906110e1565b60405180910390f35b61025f610648565b60405161026c9190611117565b60405180910390f35b61028f600480360381019061028a9190610f18565b6106da565b60405161029c91906110fc565b60405180910390f35b6102bf60048036038101906102ba9190610f18565b6107c4565b6040516102cc91906110fc565b60405180910390f35b6102ef60048036038101906102ea9190610e64565b6107e7565b6040516102fc91906110fc565b60405180910390f35b61031f600480360381019061031a9190610e8d565b610807565b60405161032c9190611239565b60405180910390f35b60606003805461034490611369565b80601f016020809104026020016040519081016040528092919081815260200182805461037090611369565b80156103bd5780601f10610392576101008083540402835291602001916103bd565b820191906000526020600020905b8154815290600101906020018083116103a057829003601f168201915b5050505050905090565b6000806103d2610927565b90506103df81858561092f565b600191505092915050565b6000600254905090565b6000806103ff610927565b905061040c858285610afa565b610417858585610b86565b60019150509392505050565b60006012905090565b600080610437610927565b90506104cb818585600160008673ffffffffffffffffffffffffffffffffffffffff1673ffffffffffffffffffffffffffffffffffffffff16815260200190815260200160002060008973ffffffffffffffffffffffffffffffffffffffff1673ffffffffffffffffffffffffffffffffffffffff168152602001908152602001600020546104c6919061128b565b61092f565b600191505092915050565b6000600660008373ffffffffffffffffffffffffffffffffffffffff1673ffffffffffffffffffffffffffffffffffffffff16815260200190815260200160002060009054906101000a900460ff1615610565576040517f08c379a000000000000000000000000000000000000000000000000000000000815260040161055c906111f9565b60405180910390fd5b61057882680ad78ebc5ac62000006107c4565b506001600660008473ffffffffffffffffffffffffffffffffffffffff1673ffffffffffffffffffffffffffffffffffffffff16815260200190815260200160002060006101000a81548160ff02191690831515021790555060019050919050565b60008060008373ffffffffffffffffffffffffffffffffffffffff1673ffffffffffffffffffffffffffffffffffffffff168152602001908152602001600020549050919050565b600560009054906101000a900473ffffffffffffffffffffffffffffffffffffffff1681565b60606004805461065790611369565b80601f016020809104026020016040519081016040528092919081815260200182805461068390611369565b80156106d05780601f106106a5576101008083540402835291602001916106d0565b820191906000526020600020905b8154815290600101906020018083116106b357829003601f168201915b5050505050905090565b6000806106e5610927565b90506000600160008373ffffffffffffffffffffffffffffffffffffffff1673ffffffffffffffffffffffffffffffffffffffff16815260200190815260200160002060008673ffffffffffffffffffffffffffffffffffffffff1673ffffffffffffffffffffffffffffffffffffffff168152602001908152602001600020549050838110156107ab576040517f08c379a00000000000000000000000000000000000000000000000000000000081526004016107a290611219565b60405180910390fd5b6107b8828686840361092f565b60019250505092915050565b6000806107cf610927565b90506107dc818585610b86565b600191505092915050565b60066020528060005260406000206000915054906101000a900460ff1681565b6000600160008473ffffffffffffffffffffffffffffffffffffffff1673ffffffffffffffffffffffffffffffffffffffff16815260200190815260200160002060008373ffffffffffffffffffffffffffffffffffffffff1673ffffffffffffffffffffffffffffffffffffffff16815260200190815260200160002054905092915050565b610924816040516024016108a29190611117565b6040516020818303038152906040527f41304fac000000000000000000000000000000000000000000000000000000007bffffffffffffffffffffffffffffffffffffffffffffffffffffffff19166020820180517bffffffffffffffffffffffffffffffffffffffffffffffffffffffff8381831617835250505050610e07565b50565b600033905090565b600073ffffffffffffffffffffffffffffffffffffffff168373ffffffffffffffffffffffffffffffffffffffff16141561099f576040517f08c379a0000000000000000000000000000000000000000000000000000000008152600401610996906111d9565b60405180910390fd5b600073ffffffffffffffffffffffffffffffffffffffff168273ffffffffffffffffffffffffffffffffffffffff161415610a0f576040517f08c379a0000000000000000000000000000000000000000000000000000000008152600401610a0690611159565b60405180910390fd5b80600160008573ffffffffffffffffffffffffffffffffffffffff1673ffffffffffffffffffffffffffffffffffffffff16815260200190815260200160002060008473ffffffffffffffffffffffffffffffffffffffff1673ffffffffffffffffffffffffffffffffffffffff168152602001908152602001600020819055508173ffffffffffffffffffffffffffffffffffffffff168373ffffffffffffffffffffffffffffffffffffffff167f8c5be1e5ebec7d5bd14f71427d1e84f3dd0314c0f7b2291e5b200ac8c7c3b92583604051610aed9190611239565b60405180910390a3505050565b6000610b068484610807565b90507fffffffffffffffffffffffffffffffffffffffffffffffffffffffffffffffff8114610b805781811015610b72576040517f08c379a0000000000000000000000000000000000000000000000000000000008152600401610b6990611179565b60405180910390fd5b610b7f848484840361092f565b5b50505050565b600073ffffffffffffffffffffffffffffffffffffffff168373ffffffffffffffffffffffffffffffffffffffff161415610bf6576040517f08c379a0000000000000000000000000000000000000000000000000000000008152600401610bed906111b9565b60405180910390fd5b600073ffffffffffffffffffffffffffffffffffffffff168273ffffffffffffffffffffffffffffffffffffffff161415610c66576040517f08c379a0000000000000000000000000000000000000000000000000000000008152600401610c5d90611139565b60405180910390fd5b610c71838383610e30565b60008060008573ffffffffffffffffffffffffffffffffffffffff1673ffffffffffffffffffffffffffffffffffffffff16815260200190815260200160002054905081811015610cf7576040517f08c379a0000000000000000000000000000000000000000000000000000000008152600401610cee90611199565b60405180910390fd5b8181036000808673ffffffffffffffffffffffffffffffffffffffff1673ffffffffffffffffffffffffffffffffffffffff16815260200190815260200160002081905550816000808573ffffffffffffffffffffffffffffffffffffffff1673ffffffffffffffffffffffffffffffffffffffff1681526020019081526020016000206000828254610d8a919061128b565b925050819055508273ffffffffffffffffffffffffffffffffffffffff168473ffffffffffffffffffffffffffffffffffffffff167fddf252ad1be2c89b69c2b068fc378daa952ba7f163c4a11628f55a4df523b3ef84604051610dee9190611239565b60405180910390a3610e01848484610e35565b50505050565b60008151905060006a636f6e736f6c652e6c6f679050602083016000808483855afa5050505050565b505050565b505050565b600081359050610e4981611636565b92915050565b600081359050610e5e8161164d565b92915050565b600060208284031215610e7657600080fd5b6000610e8484828501610e3a565b91505092915050565b60008060408385031215610ea057600080fd5b6000610eae85828601610e3a565b9250506020610ebf85828601610e3a565b9150509250929050565b600080600060608486031215610ede57600080fd5b6000610eec86828701610e3a565b9350506020610efd86828701610e3a565b9250506040610f0e86828701610e4f565b9150509250925092565b60008060408385031215610f2b57600080fd5b6000610f3985828601610e3a565b9250506020610f4a85828601610e4f565b9150509250929050565b610f5d816112e1565b82525050565b610f6c816112f3565b82525050565b6000610f7d8261126f565b610f87818561127a565b9350610f97818560208601611336565b610fa0816113f9565b840191505092915050565b6000610fb860238361127a565b9150610fc38261140a565b604082019050919050565b6000610fdb60228361127a565b9150610fe682611459565b604082019050919050565b6000610ffe601d8361127a565b9150611009826114a8565b602082019050919050565b600061102160268361127a565b915061102c826114d1565b604082019050919050565b600061104460258361127a565b915061104f82611520565b604082019050919050565b600061106760248361127a565b91506110728261156f565b604082019050919050565b600061108a600f8361127a565b9150611095826115be565b602082019050919050565b60006110ad60258361127a565b91506110b8826115e7565b604082019050919050565b6110cc8161131f565b82525050565b6110db81611329565b82525050565b60006020820190506110f66000830184610f54565b92915050565b60006020820190506111116000830184610f63565b92915050565b600060208201905081810360008301526111318184610f72565b905092915050565b6000602082019050818103600083015261115281610fab565b9050919050565b6000602082019050818103600083015261117281610fce565b9050919050565b6000602082019050818103600083015261119281610ff1565b9050919050565b600060208201905081810360008301526111b281611014565b9050919050565b600060208201905081810360008301526111d281611037565b9050919050565b600060208201905081810360008301526111f28161105a565b9050919050565b600060208201905081810360008301526112128161107d565b9050919050565b60006020820190508181036000830152611232816110a0565b9050919050565b600060208201905061124e60008301846110c3565b92915050565b600060208201905061126960008301846110d2565b92915050565b600081519050919050565b600082825260208201905092915050565b60006112968261131f565b91506112a18361131f565b9250827fffffffffffffffffffffffffffffffffffffffffffffffffffffffffffffffff038211156112d6576112d561139b565b5b828201905092915050565b60006112ec826112ff565b9050919050565b60008115159050919050565b600073ffffffffffffffffffffffffffffffffffffffff82169050919050565b6000819050919050565b600060ff82169050919050565b60005b83811015611354578082015181840152602081019050611339565b83811115611363576000848401525b50505050565b6000600282049050600182168061138157607f821691505b60208210811415611395576113946113ca565b5b50919050565b7f4e487b7100000000000000000000000000000000000000000000000000000000600052601160045260246000fd5b7f4e487b7100000000000000000000000000000000000000000000000000000000600052602260045260246000fd5b6000601f19601f8301169050919050565b7f45524332303a207472616e7366657220746f20746865207a65726f206164647260008201527f6573730000000000000000000000000000000000000000000000000000000000602082015250565b7f45524332303a20617070726f766520746f20746865207a65726f20616464726560008201527f7373000000000000000000000000000000000000000000000000000000000000602082015250565b7f45524332303a20696e73756666696369656e7420616c6c6f77616e6365000000600082015250565b7f45524332303a207472616e7366657220616d6f756e742065786365656473206260008201527f616c616e63650000000000000000000000000000000000000000000000000000602082015250565b7f45524332303a207472616e736665722066726f6d20746865207a65726f20616460008201527f6472657373000000000000000000000000000000000000000000000000000000602082015250565b7f45524332303a20617070726f76652066726f6d20746865207a65726f2061646460008201527f7265737300000000000000000000000000000000000000000000000000000000602082015250565b7f416c726561647920436c61696d65640000000000000000000000000000000000600082015250565b7f45524332303a2064656372656173656420616c6c6f77616e63652062656c6f7760008201527f207a65726f000000000000000000000000000000000000000000000000000000602082015250565b61163f816112e1565b811461164a57600080fd5b50565b6116568161131f565b811461166157600080fd5b5056fea26469706673582212202a2763c52f254bec4be777198e20d5225db75dcd3bf0b205623a596dc2ca140564736f6c63430008040033",
  "linkReferences": {},
  "deployedLinkReferences": {}
}